:100000000C9462000C947F000C947F000C947F0091
:100010000C947F000C947F000C947F000C947F0064
:100020000C947F000C947F000C947F000C947F0054
:100030000C947F000C947F000C947F000C947F0044
:100040000C9401050C947F000C947F000C947F00AD
:100050000C947F000C947F000C947F000C947F0024
:100060000C947F000C947F00000000002400270007
:100070002A0000000000250028002B0000000000DE
:1000800023002600290004040404040404040202DA
:100090000202020203030303030301020408102007
:1000A0004080010204081020010204081020000012
:1000B0000008000201000003040700000000000027
:1000C0000000880711241FBECFEFD8E0DEBFCDBFF0
:1000D00011E0A0E0B1E0E4EEF4E102C005900D9281
:1000E000A832B107D9F721E0A8E2B1E001C01D9222
:1000F000AB34B207E1F70E944B050C94650A0C94EF
:100100000000833081F028F4813099F08230A9F02A
:1001100008958730A9F08830C9F08430B1F4809117
:1001200080008F7D03C0809180008F778093800056
:10013000089584B58F7784BD089584B58F7DFBCFF6
:100140008091B0008F778093B00008958091B000C7
:100150008F7DF9CFCF93DF93282F30E0F901E2555F
:10016000FF4F8491F901E656FF4FD491F901EA5708
:10017000FF4FC491CC23A1F081110E948100EC2F8C
:10018000F0E0EE0FFF1FE458FF4FA591B491EC9102
:10019000ED2381E090E009F480E0DF91CF910895B4
:1001A00080E090E0FACF1F93CF93DF93282F30E0C9
:1001B000F901E255FF4F8491F901E656FF4FD491C2
:1001C000F901EA57FF4FC491CC23A9F0162F8111F2
:1001D0000E948100EC2FF0E0EE0FFF1FEE58FF4F62
:1001E000A591B4918FB7F894EC91111108C0D095F6
:1001F000DE23DC938FBFDF91CF911F910895DE2B1B
:10020000F8CF1F93CF93DF93C82F162F882339F091
:10021000809115018230A9F5D0E0C130A1F4809120
:1002200013018F3F59F00E94AA00019739F460E052
:10023000809113010E94D300D1E001C0D0E08091F1
:1002400015018230D1F4CD7FC1F4809114018F3F2C
:10025000A1F00E94AA00019781F460E0809114014E
:100260000E94D300112369F080911601882369F060
:100270008BEB92E10197F1F704C0112311F0D1113A
:10028000F3CFDF91CF911F9108958BE193E0F2CFEF
:10029000CF93DF9390E0FC01E656FF4F24918A57FD
:1002A0009F4FFC0184918823D1F090E0880F991F23
:1002B000FC01E859FF4FA591B491FC01EE58FF4FA6
:1002C000C591D49161110EC09FB7F8948C91E22F23
:1002D000E0958E238C932881E223E8839FBFDF91F2
:1002E000CF9108958FB7F894EC91E22BEC938FBFE8
:1002F000F6CF1F93CF93DF93182FEB0161E00E949D
:100300004801209739F460E0812FDF91CF911F9150
:100310000C94D300CF3FD10511F461E0F5CFE12F6C
:10032000F0E0E255FF4FE491E33031F140F4E13089
:10033000B1F0E230E1F0C038D1057CF7E4CFE7302E
:1003400029F1E83059F1E430B1F780918000806202
:1003500080938000D0938B00C0938A0004C084B542
:10036000806884BDC7BDDF91CF911F91089584B58A
:10037000806284BDC8BDF7CF809180008068809383
:100380008000D0938900C0938800EDCF8091B000A9
:1003900080688093B000C093B300E5CF8091B00037
:1003A00080628093B000C093B400DDCF3FB7F89473
:1003B0008091430190914401A0914501B091460183
:1003C00026B5A89B05C02F3F19F00196A11DB11DB0
:1003D0003FBFBA2FA92F982F8827BC01CD01620FEC
:1003E000711D811D911D42E0660F771F881F991FA7
:1003F0004A95D1F708957F928F929F92AF92BF92C4
:10040000CF92DF92EF92FF920F931F93CF93DF93E0
:100410008C01C62FD42F20910B0130910C01211596
:10042000310539F080910A01813089F0823009F478
:1004300082C0DF91CF911F910F91FF90EF90DF90DD
:10044000CF90BF90AF909F908F907F900895F62EA1
:1004500080910D01F81618F5CF2CD12C8091100148
:1004600090911101F601EE0FFF1FE00FF11F918334
:100470008083E0910B01F0910C01EC0DFD1D61E01A
:1004800080810E944801E0910B01F0910C01EC0D7C
:10049000FD1D61E080810E94D300FD0ED9CF83E273
:1004A00090E00197F1F7F8940E94D6014B01FC2EE1
:1004B00080910D01F81660F4E0910B01F0910C01B0
:1004C000EF0DF11D60E080810E944801FD0EF0CF2C
:1004D0007894D12CC12C8091100190911101C816F3
:1004E000D90608F0A6CFF8940E94D6016B01C8186F
:1004F000D9087C2E80910D017816D8F4E72CF12CC8
:10050000E0910B01F0910C01EE0DFF1D80810E9426
:10051000AA00892B61F4EE0CFF1CF801EE0DFF1D03
:1005200080819181C816D90610F4D182C0827D0ED7
:10053000E1CF7894D0CF862F90910D01891750F498
:10054000E82FF0E0EE0FFF1FE00FF11F1182108285
:100550008D0FF2CF40E080911201481768F59C2F73
:1005600080910D01981730F5E92FF0E0D901AE0F19
:10057000BF1F8C918E3008F08E50877080648093FE
:100580007C0080917A00806480937A0080917A0068
:1005900086FDFCCFA0917800B0917900EE0FFF1F8F
:1005A000E00FF11F608171816A0F7B1F718360838F
:1005B0009D0FD6CF4F5FCFCF80910D01C81708F0A8
:1005C00038CFEC2FF0E0EE0FFF1FE00FF11F60912E
:1005D000120170E0CB019595879520813181820FC2
:1005E000931F0E94C70771836083CD0FE5CFCF9221
:1005F000DF92EF92FF92CF93DF93C82F8091160185
:10060000882369F08C2F0E94AA00019741F460E0D2
:100610008C2F0E94D3008BEB92E10197F1F761E000
:100620008C2F0E94D3000E94D6016B01809116018D
:100630008823A9F080911701882389F0F894D0E0ED
:1006400080911701D81750F460E08C2F0E94D300DE
:1006500061E08C2F0E94D300DF5FF2CF7894C60157
:10066000DF91CF91FF90EF90DF90CF9008950F939F
:100670001F93CF93DF93C82F882359F180911501E1
:10068000823029F1D0E0809115018230D1F5CD7F03
:10069000C1F5809114018F3FA1F19091160199232A
:1006A00061F1809114010E94F7028C018091160182
:1006B000882371F1C3E2D0E00E94D601601B710B68
:1006C0006C32714000F5CE010197F1F7F5CFC130E2
:1006D000C9F6809113018F3FA9F2909116019923D9
:1006E00039F0809113010E94F7028C01D1E0CBCF49
:1006F0000E94AA00892BA9F3C5CF0E94AA00892BCA
:1007000081F2D111D3CFDF91CF911F910F91089535
:100710008BE193E00197F1F7F6CF8F929F92AF9222
:10072000BF92CF92DF92EF92FF920F931F93CF93DE
:10073000DF93CDB7DEB7C85FD1090FB6F894DEBF3F
:100740000FBECDBF8C01D62EDC018C91811157C01C
:100750001396ED90FC9060910D0170E0660F771F8D
:10076000C7010E946809F80194838383892BB9F437
:10077000C7010E94DF08C850DF4F0FB6F894DEBFF4
:100780000FBECDBFDF91CF911F910F91FF90EF90E2
:10079000DF90CF90BF90AF909F908F900895E180B1
:1007A000F28060910D0170E0660F771FC7010E9413
:1007B0006809AC01F8019283818390E041155105ED
:1007C000B9F280910D019817B8F4292F30E0220F6B
:1007D000331FD8011396ED91FC91E20FF31F1182A4
:1007E00010826091100170911101240F351FF901E1
:1007F000718360839F5FE5CF81E0D8018C93C12C2A
:1008000043E2E42EF12CB1E0DB1638F0E2E0ED1526
:10081000D0F5F3E0DF1609F46DC061E080E00E94DE
:10082000010141E060E0CE0185549F4F0E94FB0131
:10083000A0900D014E018FE3880E911CFE01E3583C
:10084000FF4F9E0125543F4FB12CAF01AB1409F46B
:10085000A1C0D9018D919D919D01CC2009F492C038
:10086000608171816817790708F48CC0D4016D919B
:100870007C918617970708F489C0B394B2E08B0E79
:10088000911C3296E3CF80E00E94370341E060E0A4
:10089000CE0185549F4F0E94FB0161E080E00E94E1
:1008A0000101A2E0DA12C4CF41E060E0CE0101967E
:1008B0000E94FB0170910D012091100130911101F6
:1008C000FE01E554FF4FDE01119660E0761709F452
:1008D000AFCF4D915D9180819181820F931F841BD9
:1008E000950B2817390708F44AC0918380836F5FFE
:1008F0003296ECCF60E082E00E9401010E94D601B6
:100900004B0181E00E94370380911601882359F042
:100910000E94D60168197909603B744020F4C70130
:100920000197F1F7F5CF42E060E0CE0185549F4F8B
:100930000E94FB0160E081E00E9401010E94D6015B
:100940004B0182E00E94370380911601882359F001
:100950000E94D60168197909603B744020F4C701F0
:100960000197F1F7F5CF42E061E0CE0185549F4F4A
:100970000E94FB0161E080E00E94010159CF3183B8
:100980002083B5CF91838083C11070CFD4018D9324
:100990009C9373CFC394EAE0CE1235CF20E08091D0
:1009A0000D01281708F0E7CE822F90E0880F991FDD
:1009B000E1E0F0E0EC0FFD1FE80FF91F66AD77AD49
:1009C000D8011396ED91FC91E80FF91FA081B18138
:1009D000A617B70710F471836083FA01E80FF91FB7
:1009E00060817181D8011196ED91FC91E80FF91F9A
:1009F000808191816817790710F4718360832F5F7C
:100A0000CECF1F920F920FB60F9211242F933F93C8
:100A10008F939F93AF93BF9380913F01909140013B
:100A2000A0914101B091420130913E0123E0230F9A
:100A30002D3758F50196A11DB11D20933E018093DD
:100A40003F0190934001A0934101B09342018091F6
:100A5000430190914401A0914501B0914601019656
:100A6000A11DB11D8093430190934401A0934501C2
:100A7000B0934601BF91AF919F918F913F912F917C
:100A80000F900FBE0F901F90189526E8230F029627
:100A9000A11DB11DD2CF789484B5826084BD84B588
:100AA000816084BD85B5826085BD85B5816085BD69
:100AB00080916E00816080936E0010928100809121
:100AC00081008260809381008091810081608093A9
:100AD0008100809180008160809380008091B100CE
:100AE00084608093B1008091B00081608093B000F9
:100AF00080917A00846080937A0080917A0082608D
:100B000080937A0080917A00816080937A0080914E
:100B10007A00806880937A001092C10061E089E0D9
:100B20000E94480161E082E00E94480161E084E0A7
:100B30000E94480161E08AE00E94480161E087E08C
:100B40000E94480161E088E00E94480180917A009B
:100B5000887F866080937A0082E080930A018FEF1D
:100B600093E09093110180931001C0910B01D091FB
:100B70000C0168E070E0CE010E94680990930C01BE
:100B800080930B01892B09F067C0CE010E94DF081A
:100B900061E08DE00E94480161E08DE00E94D30099
:100BA000C8ECD0E061E080E091E00E948D032197E5
:100BB000C9F760E08DE00E94D30022242A94312CF2
:100BC00080910001882309F45FC080E00E94370310
:100BD00041E060E08EE291E00E94FB0161E080E094
:100BE0000E940101C0900D01CEE2D1E0E09003012E
:100BF000F09004010091010110910201D12CCD145B
:100C000009F442C0D701ED91FD917D01D8018D918C
:100C10009D918D01E81BF90BC9F02881398150E0C5
:100C200040E0281B390B41095109A8EEB3E00E94AE
:100C300023089F0150E040E00E94FD07293EB3E0F9
:100C40003B0714F028EE33E037FF02C030E020E02D
:100C500029933993D394D3CFA0E2B1E090E080E020
:100C60002D91E0910B01F0910C01E80FF91F208309
:100C7000019688309105A1F788E080930D011092CC
:100C800000011092050184CFE0910D013EE2E32EB8
:100C900031E0F32E10E000E0F0E050E040E0812C85
:100CA000912C5401D12CEF17D9F0D701CD91DD91C2
:100CB0007D01C93CD10588F4C333D10550F09E01B4
:100CC000D8010E941C08860E971EA81EB91E4C0F44
:100CD0005D1FFF5F08511C4FE6CFDD24D394EFCF9B
:100CE000D110FDC0E150FF0B24EF31E0E29FC001C5
:100CF000E39F900DF29F900D1124209118013091E7
:100D00001901D0E0C0E02817390748F088EE93E0D9
:100D1000E89FE001E99FD00DF89FD00D1124CC5A37
:100D2000DD4080912C0190912D017E01E81AF90A95
:100D30006701F7FE04C0CC24DD24CE18DF086091E3
:100D400028017091290180912A0190912B0122E0C4
:100D5000660F771F881F991F2A95D1F725E030E08D
:100D600040E050E00E94FD074E010D2E000CAA0845
:100D7000BB08820E931EA41EB51E91E1891697E250
:100D80009906A104B10434F090E1892E97E2992EDE
:100D9000A12CB12CA0EF8A16A8ED9A06AFEFAA06F7
:100DA000BA063CF480EF882E88ED982EAA24AA94E7
:100DB000BA2C8092280190922901A0922A01B09227
:100DC0002B01DE01D7FF04C0AA27BB27AC1BBD0B3C
:100DD00020E530E00E941C082B013C0126E930E0B0
:100DE000D6010E941C08640D751D861D971D20E10B
:100DF00037E240E050E00E94FD078101021B130B27
:100E00000C33110514F40CE310E020EB34E0DE01A8
:100E10000E941C082B013C0120E533ECD7010E9405
:100E20001C08640D751D861D971D680D791D8A1D92
:100E30009B1D28EE33E040E050E00E94FD07A8EE45
:100E4000B3E00E9423084B015C0124EB30E0D601A3
:100E50000E941C089B01AC0128513C4F4F4F5F4F33
:100E6000C501B4010E94FD077801E21AF30A200FC0
:100E7000311FB9012838BFEF3B0714F468E87FEF52
:100E80006F3F710519F014F06FEF70E0870188E88B
:100E9000E8168FEFF80614F408E81FEF0F3F11056E
:100EA00019F014F00FEF10E037FD26C05A985C9A45
:100EB00089E00E947901F7FC25C05F9A2898B80163
:100EC0008AE00E947901D0932D01C0932C01A0E00B
:100ED000B0E0AB2B09F474CE0E9400006ECE9A01F4
:100EE00050E040E0C501B4010E94DB07E901309306
:100EF00019012093180113CF5A9A5C987195619546
:100F00007109D6CF5F98289A119501951109D7CF0D
:100F1000809113018F3F31F060E00E9448018FEF14
:100F200080931301809114018F3F31F060E00E94A3
:100F300048018FEF809314011092150180910B01ED
:100F400090910C01009711F00E94DF08809103013D
:100F500090910401009711F00E94DF088091080130
:100F600090910901009711F00E94DF088091010122
:100F700090910201009711F00E94DF088091060114
:100F800090910701009711F00C94DF080895AA1BB7
:100F9000BB1B51E107C0AA1FBB1FA617B70710F064
:100FA000A61BB70B881F991F5A95A9F78095909596
:100FB000BC01CD010895A1E21A2EAA1BBB1BFD01A5
:100FC0000DC0AA1FBB1FEE1FFF1FA217B307E40728
:100FD000F50720F0A21BB30BE40BF50B661F771F80
:100FE000881F991F1A9469F7609570958095909560
:100FF0009B01AC01BD01CF010895052E97FB1EF4A6
:1010000000940E94140857FD07D00E94DB0707FCDC
:1010100003D04EF40C9414085095409530952195CA
:101020003F4F4F4F5F4F0895909580957095619514
:101030007F4F8F4F9F4F08950E943408B7FF089548
:10104000821B930B08950E943408A59F900DB49FB6
:10105000900DA49F800D911D11240895EE0FFF1F88
:101060000590F491E02D0994A29FB001B39FC001B7
:10107000A39F700D811D1124911DB29F700D811DC4
:101080001124911D08950F931F93CF93DF93823006
:10109000910510F482E090E0E0914901F0914A015D
:1010A00030E020E0B0E0A0E0309799F42115310560
:1010B00009F44AC0281B390B24303105D8F58A8140
:1010C0009B816115710589F1FB0193838283FE0188
:1010D00011C0408151810281138148175907E0F006
:1010E0004817590799F4109761F012960C931297CC
:1010F00013961C933296CF01DF91CF911F910F91E0
:1011000008950093490110934A01F4CF2115310548
:1011100051F04217530738F0A901DB019A01BD01D4
:10112000DF01F801C1CFEF01F9CF90934A0180931D
:101130004901CDCFFE01E20FF31F8193919322501D
:10114000310939832883D7CF209147013091480155
:10115000232B41F420911C0130911D013093480153
:101160002093470120911A0130911B01211531056F
:1011700041F42DB73EB740911E0150911F01241B31
:10118000350BE0914701F0914801E217F307A0F415
:101190002E1B3F0B2817390778F0AC014E5F5F4FCD
:1011A0002417350748F04E0F5F1F509348014093B6
:1011B0004701819391939FCFF0E0E0E09CCFCF93E4
:1011C000DF930097E9F0FC01329713821282A0911D
:1011D0004901B0914A01ED0130E020E01097A1F4FF
:1011E00020813181820F931F209147013091480166
:1011F0002817390709F061C0F0934801E0934701CF
:10120000DF91CF910895EA01CE17DF07E8F54A8113
:101210005B819E0141155105B1F7E901FB83EA832A
:1012200049915991C40FD51FEC17FD0761F48081D6
:1012300091810296840F951FE901998388838281A9
:1012400093819B838A83F0E0E0E012968D919C91DC
:1012500013970097B9F52D913C911197CD01029606
:10126000820F931F209147013091480128173907B9
:1012700039F6309751F510924A0110924901B09316
:101280004801A0934701BCCFD383C28340815181E1
:10129000840F951FC817D90761F44E5F5F4F88818F
:1012A0009981480F591F518340838A819B81938381
:1012B00082832115310509F0B0CFF0934A01E09304
:1012C00049019ECFFD01DC01C0CF13821282D7CF2E
:1012D000B0E0A0E0EEE6F9E00C94300A8C01009753
:1012E00051F4CB010E9443088C01C801CDB7DEB791
:1012F000E0E10C944C0AFC01E60FF71F9C01225020
:101300003109E217F30708F49DC0D901CD91DC91B2
:101310001197C617D70798F0C530D10530F3CE0125
:1013200004978617970708F3C61BD70B2297C1931C
:10133000D1936D937C93CF010E94DF08D6CF5B01E0
:10134000AC1ABD0A4C018C0E9D1EA0914901B091B2
:101350004A01512C412CF12CE12C109731F5809150
:101360004701909148018815990509F05CC046161F
:10137000570608F058C080911A0190911B01009700
:1013800041F48DB79EB740911E0150911F01841BFF
:10139000950BE817F90708F055C0F0934801E09362
:1013A0004701F90171836083A0CF8D919C911197C2
:1013B00012966C90129713967C901397A815B90506
:1013C00059F56C0142E0C40ED11CCA14DB0420F1B3
:1013D000AC014A195B09DA011296159780F0628216
:1013E000738251834083D9016D937C93E114F1049E
:1013F00071F0D7011396FC93EE93129776CF229655
:101400008C0F9D1FF90191838083F301EFCFF0933F
:101410004A01E093490169CF4816590608F42C01A6
:101420007D01D3019ACFCB010E9443087C01009734
:1014300049F0AE01B8010E94250AC8010E94DF08E8
:10144000870153CF10E000E050CFFB01DC0102C068
:1014500001900D9241505040D8F708952F923F923D
:101460004F925F926F927F928F929F92AF92BF92B4
:10147000CF92DF92EF92FF920F931F93CF93DF9360
:10148000CDB7DEB7CA1BDB0B0FB6F894DEBF0FBEBD
:10149000CDBF09942A88398848885F846E847D840A
:1014A0008C849B84AA84B984C884DF80EE80FD800C
:1014B0000C811B81AA81B981CE0FD11D0FB6F89482
:1014C000DEBF0FBECDBFED01089510E0C1E6D0E054
:1014D00004C0FE010E942E082196C236D107C9F72A
:0414E000F894FFCFAE
:1014E4000000000000000000000000000000C4092B
:1014F400C40904FFFF000100000000004B0180004C
:081504000E0F10111213141553
:00000001FF
